:020000040800F2
:1000000050070020A9010008A32D00085B2B000861
:10001000A12D0008C31300083D36000800000000B1
:10002000000000000000000000000000DB300008BD
:10003000E915000800000000D9300008DD30000894
:10004000C3010008C3010008C3010008C301000880
:10005000C3010008C3010008C3010008C301000870
:10006000C3010008C3010008C3010008C301000860
:10007000C3010008C3010008C3010008C301000850
:10008000C3010008C3010008C3010008C301000840
:10009000C3010008C3010008C3010008C301000830
:1000A000C3010008C3010008C30100084131000872
:1000B000C3010008C3010008C3010008C301000810
:1000C000C3010008C3010008C3010008C301000800
:1000D000C301000831360008C3010008C30100084D
:1000E000C3010008C3010008C301000800F002F8C2
:1000F00000F04AF80AA090E8000C82448344AAF178
:100100000107DA4501D100F03FF8AFF2090EBAE875
:100110000F0013F0010F18BFFB1A43F0010318473B
:100120000445000024450000103A24BF78C878C177
:10013000FAD8520724BF30C830C144BF04680C60ED
:10014000704700000023002400250026103A28BF35
:1001500078C1FBD8520728BF30C148BF0B60704739
:10016000662903F08D86642900F07A8000207047AC
:100170001FB500F0E9FB04000020002103F076FC2D
:10018000E0601FBD10B510BD00F0DEFC1146FFF7AA
:10019000EFFF03F087FA00F0FCFC03B4FFF7F2FF77
:1001A00003BC00F03FFD00000948804709480047B4
:1001B000FEE7FEE7FEE7FEE7FEE7FEE7FEE7FEE717
:1001C000FEE7FEE704480549054A064B7047000074
:1001D0003F310008ED0000085001002050070020CA
:1001E00050030020500300200FB41CB5074B06AA93
:1001F0007B4469460090059800F08DFB002069461D
:1002000000F09CFB1CBC5DF814FB000049070000DB
:1002100070B5044685690068C10601D5302600E046
:100220002026C00707D070BDD4E901213046904791
:10023000206A401C20626D1EF6D570BD70B5044664
:1002400085690078C00707D170BDD4E9012120205D
:100250009047206A401C20626D1EF6D570BD0000DC
:100260002DE9F0410646002410687529314616A58F
:1002700010D0AFF30080002802DA404213A507E057
:1002800031688A0701D512A502E0490704D511A5F6
:10029000012401E0AFF3008000210A2206F12407C7
:1002A00009E0B0FBF2FCB0FBF2F302FB1C003030C3
:1002B00078541846491C0028F3D123462A46304674
:1002C000BDE8F04100F0B9B8000000002D000000CA
:1002D0002B000000200000002DE9F0474FF0000A3D
:1002E00089460446C0F820A02046E16888470028D7
:1002F00076D0252806D0D4E901219047206A401CF9
:100300002062F1E7E168204600258847C4F81CA078
:1003100006460027C4F818A02A2E09D0304603F05C
:10032000B2F938B304EB8708303EC8F8186019E01A
:1003300059F8041B204604EB87029161E168884765
:10034000012F064618D1E069002820DA25F02005A3
:100350001DE0D8F8180000EB800006EB40003038B4
:10036000C8F818002046E1688847064603F08BF974
:100370000028EED1012F0AD02E2E08D12046E168A8
:1003800088477F1C0646022F45F02005C4DBA06984
:10039000002803DA404245F00105A061E80701D0DA
:1003A00025F01005B6B1A6F14100192802D8203673
:1003B00045F400654A463146204625604D46FFF724
:1003C000CFFE58B1012806D0ED1D25F0070000F141
:1003D000080989E704E005F1040985E730468AE762
:1003E000206ABDE8F0874FF0000200B5134694463E
:1003F0009646203922BFA0E80C50A0E80C50B1F17D
:100400002001BFF4F7AF090728BFA0E80C5048BF90
:100410000CC05DF804EB890028BF40F8042B08BF2E
:10042000704748BF20F8022B11F0804F18BF00F82A
:10043000012B70477047704770472DE9F0470D4614
:1004400099469246044600F124080168880604D5BE
:10045000E06921F01001216000E00120A84201DDE7
:10046000471B00E00027A1697A1902EB0900081A6E
:10047000A0612078C00602D42046FFF7C9FE0026FE
:1004800008E0D4E901211AF806009047206A401CD0
:10049000761C20624E45F4DB2078C0060AD5204643
:1004A000FFF7B6FE06E0D4E9012130209047206A2C
:1004B000401C2062381EA7F10107F4DC07E0D4E9F4
:1004C000012118F805009047206A401C2062281E70
:1004D000A5F10105F3DC2046FFF7B0FE2078000609
:1004E00002D50220BDE8F0870120FBE770472DE927
:1004F000FF4F0C461E464FF0FF378BB0D2E900018C
:10050000DDF860800A908A46C1F30A5505B93D4678
:10051000002108464FF00000BAF1000F00F440003F
:1005200005DA00EB80004FF4400101EA50004FEA89
:100530009059B9F1010F00DDB9460A9850EA4A0016
:100540000ED044F61050A5F2FF3545432F14B8F1F4
:10055000000F1ED07542291E1EDDC9F100021CE0ED
:10056000B8F1010F4FF0000001D0302103E0F24359
:1005700005E02154401CB042FBDB30460022002144
:1005800021540B99C1F80880C1E900200FB0BDE8E3
:10059000F08FBD1B6D1CDEE74A4600DA694206A8F3
:1005A00000F05CFA06AB93E8070003AB83E80700B2
:1005B00050460A9900F03DFB8DE80700A0F5005079
:1005C0001F3800900398002D0ADD42F21F014A46B1
:1005D0000844002303A90390684600F0A6FD09E043
:1005E000A0F500504A461F38002303A9039068462F
:1005F00000F0B0FD8DE807000004000C03D04FF0C0
:10060000FF30410800E01046B8F1000F03D000228F
:10061000009215461EE0751E05D400F099F930329F
:1006200062556D1EF9D5B3460122084302D000225F
:100630007F1C04E02078302801D100227F1E002A90
:10064000099784D01DE0112D07DA00F081F93032CE
:1006500062556D1C50EA0102F5D1084302D00098A2
:10066000C8B10EE00021681E05E0235C625C6354A3
:100670002254401E491C8142F7DBAB46A81B401E9A
:100680000990002004F80B000B98099AC0F8088024
:10069000C0E9002B7AE711264FF0000857E72DE953
:1006A000F04F88460446D21D22F0070191B0D1E9EF
:1006B0000001CDE90A0102F0C2FF02460B98C00F0B
:1006C00001D02D2007E02068810701D52B2002E012
:1006D000202101EAC000032A099001D0072A05DB86
:1006E00003464146204600F079F90BE12078800668
:1006F00001D5E06900E00620B8F1650F814606D01B
:10070000B8F1660F18D0B8F1670F70D131E0002052
:10071000B9F1110F009001DB112301E009F1010390
:100720000AAA01A90CA8FFF7E2FEDDE90C70002679
:1007300009F10105834647E001204B4600904FF048
:1007400000470AAA01A90CA8FFF7D1FEDDE90DB008
:100750000C995D46002610B909F101000D18B9EB9E
:10076000050003D4C0F1FF3609F10105A5EB09002E
:100770002BE0B9F1010F01DA4FF001090020B9F1C6
:10078000110F0090484601DD112300E003460AAA3C
:1007900001A90CA8FFF7ABFEDDE90C704D46002661
:1007A0008346207800070AD4AB4500DA5D4601A8ED
:1007B000012D04DD411911F8011C302907D04F45E6
:1007C00002DA17F1040F04DA012082460FE06D1EF1
:1007D000EEE7002F02DCED1B3E4403E0781CA8424C
:1007E00000DD7D1CB81B00F1010A4FF000472078A6
:1007F000000703D4AA4501DB4FF0FF3A0021B7F10F
:10080000004F0DF143088DF8431024D002202B2314
:10081000002F01DA7F422D230A21021EA0F10100E0
:1008200000DC5FB197FBF1FC97FBF1F201FB1C7C54
:1008300017460CF1300C08F801CDEEE7A8F10100E5
:1008400003702188090501D5452100E06521A0F14B
:10085000010800F8011C09980FA9A1EB0807FF1D6A
:1008600000B10120411901EBEA70A1693844081A6E
:10087000401EA0612078C00602D42046FFF7C8FCC5
:10088000099828B1D4E901219047206A401C2062D0
:100890002078C00622D52046FFF7BAFC1EE0002EC5
:1008A00004DBB34502DD01A8805D00E03020D4E91F
:1008B00001219047206A401C2062761CAAF10100A9
:1008C0005FEA000A0AD100F03FF8C0680168405CA6
:1008D000D4E901219047206A401C2062281EA5F11E
:1008E0000105DCDC07E0D4E9012118F8010B904791
:1008F000206A401C2062381EA7F10107F3DC204665
:10090000FFF79CFC032011B041E6000001694A1C7E
:1009100002610878704700B58FB0CDE90131002140
:10092000059105497944CDE9031011466846FFF762
:10093000D3FC0FB000BD0000E5FFFFFF0A6802F81E
:10094000010B0A607047000000487047100100204A
:1009500030B5B0F10A024FEA900E71F100034EEA91
:10096000817EB0EB0E0061EB91014FEA101E4EEA62
:10097000017E10EB0E0041EB11114FEA102E4EEAF2
:10098000016E10EB0E0041EB11214FEA104E4EEAC2
:10099000014E10EB0E0041EB1141401841F10001F6
:1009A0004FEAD00040EA41704FEAD10110EB8005D8
:1009B0004FEA810444EA907444EB01046D1944EB5E
:1009C0000404521BA3414FF0000348BF0A3200D574
:1009D00030BD401C41F1000130BD00002DE9F04167
:1009E0001F46044603260168072A01F4006004DB61
:1009F00008B116A505E016A503E008B115A500E0AD
:100A000015A521F010002060A069C01EA0610FB1E3
:100A1000401EA0612046FFF7FBFB4FB1D4E9012146
:100A200038469047206A401C2062C01C206206E0C5
:100A3000206AFAE7D4E9012115F8010B9047761EE8
:100A4000F8D22046FFF7FAFBBDE8F0814E414E0098
:100A50006E616E00494E4600696E66002DE9F047F2
:100A6000814616468AB0354878440DC88DE80D0099
:100A700032487844801C03AC0DC884E80D0041F670
:100A80009B300844372190FBF1F290FBF1F5A5F182
:100A9000800501FB12041B3C02D56442012000E0EA
:100AA0000020DFF898A080460027FA44AAF1BE0A89
:100AB0000EE0E0070AD03246684607EB4701012303
:100AC0000AEB810100F046FB8DE8070064107F1CF3
:100AD000002CEED1194F7F44AE3F19E0E80715D046
:100AE00007EB04100DF1180A90E80E008AE80E00DA
:100AF000C068F04201D1981908903246012306A936
:100B000003A800F027FB03AB83E807006D10641C0B
:100B1000002DE3D14FF0010332466946B8F1000FD2
:100B200003A802D000F001FB01E000F013FBC9E9CB
:100B30000001C9F808200AB0BDE8F087A03B00001A
:100B400000487047F00000207546FFF7F9FFAE46F9
:100B500005006946534620F00700854618B020B5C9
:100B6000FFF730FBBDE820404FF000064FF00007D4
:100B70004FF000084FF0000B21F00701AC46ACE845
:100B8000C009ACE8C009ACE8C009ACE8C0098D46B2
:100B9000704710B50446AFF300802046BDE8104012
:100BA000FFF7FBBA4FF0013C50F8042B51F8043B1F
:100BB0009A4221D1A2EB0C03934313EACC1317D131
:100BC00050F8042B51F8043B9A4215D1A2EB0C03C8
:100BD000934313EACC130BD150F8042B51F8043B88
:100BE0009A4209D1A2EB0C03934313EACC13DBD056
:100BF0004FF00000704700BFD01A01BAB1FA81F17E
:100C000001F0180122FA01F0CB40C1F12001DBB262
:100C1000C0B2C01A2CFA01F3D11A914311EAC311E0
:100C2000E6D1704701491820ABBEFEE7260002005E
:100C300070475FEA400C08BF91F0000F4FEA8C2329
:100C40004FEAC12243EA51514FEA1C5018BF00F548
:100C5000F0404FEA300018BF41F000415FEA6C5CA1
:100C600000F02980BCF1FF3F08BF40F08040704792
:100C7000130C06BF12044FF0100C4FF0000C130EB3
:100C800004BF12020CF1080C130F04BF12010CF187
:100C9000040C930F04BF92000CF1020CD30F04BF9D
:100CA00052000CF1010C11464FF00002A0F11F00A0
:100CB000A0EB0C00704711F0004F08BF704731F0F7
:100CC00000413FF4D5AF0B0C06BF09044FF0100CE8
:100CD0004FF0000C0B0E04BF09020CF1080C0B0FB7
:100CE00004BF09010CF1040C8B0F04BF89000CF147
:100CF000020CCB0F04BF49000CF1010CCCF1200316
:100D0000A0EB0C0022FA03F302FA0CF241EA030111
:100D100000F10100704720F07F4C80EA030023F0CF
:100D20007F47ACEB070303F57C5300F0004003F171
:100D3000FF032DE980494FEA154B09B44FEA1443EC
:100D400025EA0B4E24EA03480FF2042606EB13278C
:100D500049083E785FEA320203FB0667C7F50007E1
:100D600007FB06F64FEA54374FEAD64606F102066D
:100D700007FB066CCCF1005C4FEA1C472CEA074CE1
:100D800007FB06F40CFB06F504EB15464FEA961636
:100D900034BF00204FF000404FEAD13706FB07FC7C
:100DA0004FEA1C4C0CFB0BF7D21B03FB0CF761EB5F
:100DB00007010CFB0EF7B0EB074072EB17420CFB80
:100DC00008F734BFA2EB0742B2EB074261EB1741D1
:100DD0004FEA0C444FEA910706FB07FC4FEA1C4C14
:100DE0000CFB0BF7B0EBC74072EB573203FB0CF771
:100DF00034BFA2EBC742B2EBC74261EB57310CFBE9
:100E00000EF7B0EBC70072EB57720CFB08F734BF5C
:100E1000A2EBC702B2EBC70261EB5771039F4FEA27
:100E2000816141EA921104EBCC044FEAD1374FEAD9
:100E3000826206FB07FC42EA90124FEA80604FEAAA
:100E40001C4C0CFB0BF7D21B03FB0CF761EB0701EF
:100E50000CFB0EF7B0EB074072EB17420CFB08F7E8
:100E600034BFA2EB0742B2EB074261EB17414FEAF6
:100E70008C554FEA910704EB9C2406FB07FC4FEAD4
:100E80001C4C0CFB0BF7B0EBC74072EB573203FB6B
:100E90000CF734BFA2EBC742B2EBC74261EB57314C
:100EA0000CFB0EF7B0EBC70072EB57720CFB08F7A8
:100EB00034BFA2EBC702B2EBC70261EB577115EB6F
:100EC0004C254FEA816141EA92114FEA82624FEA72
:100ED000D13742EA901206FB07FC44F100044FEAC6
:100EE00080604FEA1C4C0CFB0BF7D21B03FB0CF78A
:100EF00061EB07010CFB0EF7B0EB074072EB1742FA
:100F00000CFB08F734BFA2EB0742B2EB074261EBE0
:100F1000174115EB1C154FEA813141EA92414FEA26
:100F2000823242EA90424FEA80304FEA0C7644F136
:100F3000000448EA03434EEA0B484FF0000EB2EBC0
:100F4000080C71EB030724BF624639464EEB0E0EC8
:100F50004FF0000B0018524149414BEB0B0BB2EB29
:100F6000080C71EB03077BF1000B24BF6246394686
:100F70004EEB0E0E4FF0000B0018524149414BEB67
:100F80000B0BB2EB080C71EB03077BF1000B24BFDA
:100F9000624639464EEB0E0E51EA020718BF46F084
:100FA000010616EB0E7655F1000254F1000103D54F
:100FB000BDE88901BDE80088BDE88901BDE80048B9
:100FC000B619524141EB0101A3F101037047808042
:100FD0007F7E7D7C7B7A7978777676757473727193
:100FE00071706F6E6E6D6C6C6B6A6A69686867664B
:100FF00066656464636362616160605F5F5E5E5DDD
:101000005D5C5C5B5B5A5A59595858575756565550
:1010100055555454535352525251515050504F4FB2
:101020004F4E4E4D4D4D4C4C4C4B4B4B4A4A4A4902
:101030004949484848474747474646464545454445
:101040004444444343434342424242414141002BD2
:101050009C4630D477002BD01CB54FEA370703B439
:101060004FF010004FF01001BAF1000F06D0BCF1A4
:10107000000FDCBF40F0080040F008014FF0000016
:101080000FBCBDE810400BF1010BBBF1010F08BF15
:101090005FEA170722BF12F1010211F101014FF0BF
:1010A000004143F1000300F0004043EA00007047B4
:1010B000F9D35708D0E746EA064613F1400F4FEA46
:1010C00016461FDD13F1200FDFBF16430A4600212D
:1010D00020335B42BED0C3F1200746EA064602FA3F
:1010E00007F74FEA164646EA0706C3F1200722FA39
:1010F00003F201FA07F721FA03F14FF0000342EA85
:101100000702A7E746EA020646EA06464FEA1646FF
:1011100046EA0106BCBF46EA0646360C4FF000031D
:101120004FF000024FF0000194E72DE9804C9A4601
:10113000934670B491E8380007C831EA400C48BFC4
:1011400034EA430C03D5FFF7E6FDFFF780FFF0BC60
:10115000BDE8008C2DE9804C9A46934670B491E826
:10116000380007C810F0804F08BF13F0804F03D13C
:1011700000F005F8FFF76BFFF0BCBDE8008C20F035
:101180007F4780EA030023F07F4C07EB0C03A3F5B5
:101190007C5300F00040A3F1FE0392F0000F00F03A
:1011A000B38095F0000F00F077802DE901494FEAF8
:1011B00011404FEA144621EA004800FB06FC24EAED
:1011C000064708FB06F607FB08F800FB07F718EBD5
:1011D00006484CEB164C4FEA124B18EB07484FEA07
:1011E00015464CEB174022EA0B4E0BFB06FC25EA9A
:1011F00006470EFB06F607FB0EFE0BFB07F71EEB82
:10120000064E4CEB164C4FF000061EEB074E4CEB17
:10121000174B18EB0B0840F1000018EB0E0B58EBC6
:10122000000840F100008F1A4FF000013CBFC94395
:10123000661B14BFB5EB040C00213CBFC943F61B71
:101240004FEA17444EEA8E0E27EA04454FEA1C4740
:1012500004FB07622CEA074C05FB07F70CFB05F6BD
:1012600004FB0CFC16EB074642EB174216EB0C4650
:1012700042EB1C421BEB060658EB0202414146EAD8
:101280009E0601D5BDE80189B619524141EB010125
:10129000A3F10103BDE801894FEA14454FEA114764
:1012A00024EA054621EA074C05FB07F406FB07F78D
:1012B0000CFB06F105FB0CFC11EB074144EB17445A
:1012C0004FEA124711EB0C4144EB1C4422EA074C55
:1012D00005FB07F206FB07F70CFB06F605FB0CFC0B
:1012E00016EB074642EB174216EB0C4642EB1C4549
:1012F0006A1854F1000148BF7047B619524141EBDA
:101300000101A3F10103704795F0000F37D04FEAB8
:1013100011424FEA144721EA024624EA074C02FB35
:1013200007F106FB07F70CFB06F402FB0CFC14EBC1
:10133000074441EB17414FEA154714EB0C4441EBCE
:101340001C4125EA074C02FB07F506FB07F70CFBDF
:1013500006F602FB0CFC16EB074645EB174516EBB1
:101360000C4645EB1C42121951F1000148BF704771
:10137000B619524141EB0101A3F1010370474FEA55
:1013800014454FEA114724EA054621EA074C05FBBC
:1013900007F106FB07F70CFB06F24FF0000605FB12
:1013A0000CFC12EB074241EB174112EB0C4251EBE4
:1013B0001C4148BF7047921841EB0101A3F10103A2
:1013C0007047FEE770B5002400F054F84FF48045F4
:1013D000134E04E0641CE4B2012002F05BF92946DC
:1013E000304600F0ADFA10B1C82CF3D301E0C82CA0
:1013F00001D3012070BD002404E0641CE4B201208C
:1014000002F048F92946304600F09AFA18B1F02C5B
:1014100004D3022070BDF02CEFD3FAE7002070BD9A
:10142000000C014010B500F09FF800F081F8FFF7C4
:10143000C9FFCC2000F0A6F8BE2000F0A3F800F011
:1014400067F8044600F064F8702803D9C043E1430C
:10145000C0B2CCB204EB002000B202F086FB002246
:10146000034B02F099FB02F051FB00B210BD0000EB
:101470000000E43F1FB54FF4804000900020019031
:101480006946024800F06CF91FBD0000000C0140E5
:101490001FB54FF48040009001200190032003907D
:1014A0006946024800F05CF91FBD0000000C0140D5
:1014B00010B500F03DF8BDE81040FFF783BF000015
:1014C00070B5FFF7E5FF114D4FF48044002221462F
:1014D000284600F03AFA022002F0DCF80122214608
:1014E000284600F032FAFFF7C5FF0C2002F0D2F8D0
:1014F0002146284600F024FA08B1012100E000212D
:10150000322002F0C7F8084670BD0000000C014010
:1015100070B500255FF00104FFF7D2FFC001641C25
:1015200040EA5500E4B2C5B2082CF5D9284670BD92
:1015300070B5FFF7ADFF0B4D4FF4804400222146FC
:10154000284600F002FA40F2EE2002F0A3F8012251
:101550002146284600F0F9F9BDE870400F2002F05E
:1015600099B80000000C014010B5FFF7E1FFFFF74C
:1015700029FFCC2000F006F8BDE81040442000F020
:1015800001B800002DE9F0410546FFF781FF012475
:10159000144FA60315F0010F4FEA55054FF0000256
:1015A000314638460BD000F0D0F9022002F072F834
:1015B00001223146384600F0C8F93C200AE000F02C
:1015C000C4F93C2002F066F801223146384600F0AA
:1015D000BCF9022002F05EF8641CE4B2082CD9D9F0
:1015E000BDE8F081000C01407047000070B5012299
:1015F000164D54022146284600F0A7F9012000F0BC
:101600009DF800222146284600F09FF9104900204D
:1016100009684862142000F091F808210C4801F094
:1016200086F804460C210A4801F081F8001B02F0FC
:101630009CFA084A084B02F0AFFA4FF0FF3202F072
:1016400053FCBDE8704002F027BA000000080140DA
:10165000180000209CC420B07268A13F10B590F81B
:1016600021100022022905D00421816380F8202066
:10167000012010BD01680B6823F00E030B600168A8
:101680000B6823F001030B6090F84030C46B01211C
:1016900001FA03F3636080F8211080F820201046DF
:1016A00010BD000010B590F821100024022903D0CD
:1016B0000421816301243DE001680A6822F00E02E2
:1016C0000A6001680A6822F001020A601A4A016889
:1016D000914201D1012121E0174A1432914201D1F6
:1016E00010211BE0144A2832914201D1891515E0DE
:1016F000114A3C32914201D189140FE00E4A503216
:10170000914202D14FF4803108E00B4A6432914299
:1017100002D14FF4801101E04FF08071064A083A7F
:101720005160012180F82110002180F82010416BC8
:1017300001B18847204610BD0800024070B504463C
:1017400000F008F90546601C02D004480078044403
:1017500000F000F9401BA042FAD370BD0800002041
:101760002DE9F84FDFF8B8910024A9F1040B2346C6
:101770000F2709F1040AABF1040EC9E00125A540C9
:101780002A40AA427DD1674ED1F804C0ACEB0608CE
:10179000B44532D014DCBCF1030F3AD009DCBCF103
:1017A000000F2AD0BCF1010F1CD0BCF1020F31D1C7
:1017B0001DE0BCF1110F17D0BCF1120F2AD119E0B6
:1017C000B8F5881F19D006DCB8F5803F15D0B8F5FC
:1017D000801F1FD111E0B8F5001F0ED0B8F5041F0F
:1017E00018D10AE0CB6815E0CB681B1D12E0CB686E
:1017F00008330FE0CB680C330CE08B682BB1012B66
:101800004FF0080303D0456104E0042302E00561C2
:1018100000E00023FF2A01D8064601E000F104069B
:101820004FEA840501D9A5F12005D6F8008007FA12
:1018300005FC28EA0C0803FA05F548EA0508C6F88D
:1018400000804D68ED0062D5374DAE6946F0010667
:10185000AE61AD6924F0030605F001050095334D36
:1018600006EB050CDCF80850A607360F07FA06F859
:1018700025EA0805DFF8B880404503D14FF000089D
:1018800017E044E0DFF8AC80404502D14FF001089A
:101890000FE0DFF8A480404502D14FF0020808E0D5
:1018A000DFF89880404502D14FF0030801E04FF087
:1018B000040808FA06F848EA0508CCF808804D68DC
:1018C000D9F80060ED024D4601D5164300E096437D
:1018D0002E604D68DAF80060AD02554601D516431A
:1018E00000E096432E604D68DBF80060AD035D4676
:1018F00001D5164300E096432E604D68DEF8006087
:10190000ED03754601D5164300E096432E60641C36
:101910000D682A46E5407FF431AFBDE8F88F00003E
:1019200008040140000011100010024000000140B6
:1019300000080140000C014000100140001401406B
:101940008068084000D0012070470AB101617047EB
:101950000904FBE701488068704700000800002088
:1019600002488168027811448160704708000020B5
:10197000074810B5016841F010010160032000F034
:1019800075F80F2000F006F800F024F8002010BDD4
:101990000020024070B50D4D04464FF47A7128784E
:1019A000B1FBF0F00A490968B1FBF0F000F0DCFA95
:1019B00048B9102C07D200222146501E00F036F8FC
:1019C00000206C6070BD012070BD00000800002088
:1019D000140000200C4808B5816941F001018161C3
:1019E000816901F001010091C16941F08051C1613B
:1019F000C06900F0805000900448416821F0E06127
:101A000041F00071416008BD00100240000001403B
:101A1000002809DB00F01F020121914040098000ED
:101A200000F1E020C0F8001170470000F0B40E4B48
:101A30001B680C46C3F30223C3F10705042D00D92C
:101A40000425191D072901D2002300E0DB1E012611
:101A500006FA05F1491E214099409E40761E164027
:101A60003143F0BC01F0FFBD0CED00E0064900F091
:101A7000070208684FF6FF03184040EA0220034AB5
:101A800010430860704700000CED00E00000FA050C
:101A90002DE9F0470F46050061D0434E306800F055
:101AA0000700B84209D2306820F0070038433060A0
:101AB000306800F00700B84251D128683B4C8107DC
:101AC00012D5400703D5606840F4E0606060287874
:101AD000000703D5606840F4605060606068A968E2
:101AE00020F0F000084360602878C00728D06868BC
:101AF000012810D02168022810D0890700292EDA89
:101B0000616821F0030101436160FFF723FF804614
:101B100041F288390DE021688903EFE78901EDE79B
:101B2000FFF718FFA0EB0801494502D90320BDE8E3
:101B3000F0876068696800F00C00B0EB810FEFD1AE
:101B4000306800F00700B8420BD9306820F0070079
:101B500038433060306800F00700B84201D00120FF
:101B6000E5E72878400705D56068E96820F4E0607B
:101B7000084360602878000706D56068296920F46A
:101B8000605040EAC100606000F038F86168084ABF
:101B9000C1F30311515CC84006490860064800685B
:101BA000FFF7F8FE0020C2E70020024000100240CC
:101BB000863F0008140000200C000020044805495E
:101BC00000684968044AC1F30221515CC84070476B
:101BD0001400002000100240963F00080448054908
:101BE00000684968044AC1F3C221515CC84070478B
:101BF0001400002000100240963F00080E4A516871
:101C00000E4801F00C03042B11D0082B0FD10C4807
:101C1000C1F38343C903C05C0AD55168084AC1F3C4
:101C20004041921E515C054A5043B0FBF1F07047B1
:101C300004494843704700000010024000127A0037
:101C4000763F000800093D002DE9F84F040070D0F0
:101C50002078C04DC00749D06868C0F381000128D2
:101C600007D06868C0F38100022809D16868C00302
:101C700006D52868800339D560680028E7D035E0AC
:101C80006068B0F5803F0BD010B1B0F5A02F11D037
:101C9000286820F480302860286820F4802002E042
:101CA000286840F480302860606890B1FFF752FEE9
:101CB00006460AE0286840F480202860F0E700BF6C
:101CC000FFF748FE801B642873D828688003F7D587
:101CD0000CE0FFF73FFE064605E000BFFFF73AFEC7
:101CE000801B6428F0D828688003F7D420789A4EA7
:101CF00080074FF001094FF0000839D5686810F0EF
:101D00000C0F07D06868C0F38100022809D1686809
:101D1000C00306D42868800714D52069012808D19B
:101D200010E02069B0B1C6F80090FFF713FE074637
:101D300005E00AE1FFF70EFEC01B0228C4D82868A0
:101D40008007F7D52868616920F0F80040EAC100F3
:101D500028600DE0C6F80080FFF7FCFD074604E0B0
:101D6000FFF7F8FDC01B022823D828688007F7D4A6
:101D7000207800072CD57948A169D9B1C0F8009026
:101D8000FFF7E8FD074604E0FFF7E4FDC01B02286B
:101D90000FD8686A8007F7D571484FF4FA51006888
:101DA000B0FBF1F0009000BF0098411E0091FAD204
:101DB0000EE080E0C0F80080FFF7CCFD074604E0AD
:101DC000FFF7C8FDC01B022875D8686A8007F7D4E2
:101DD0002078400760D5E8690027C00008D4E8698A
:101DE00040F08050E861E869012700F080500090E1
:101DF0005C480168C90513D40168834641F48071C9
:101E00000160FFF7A7FD824606E000BFFFF7A2FDD5
:101E1000A0EB0A0064284ED8DBF80000C005F5D519
:101E2000E06801280AD008B1052813D0286A20F0FC
:101E300001002862286A20F0040002E0286A40F0CD
:101E400001002862E06841F2883B98B1FFF782FD0B
:101E500082460BE0286A40F004002862EEE700BFEB
:101E6000FFF778FDA0EB0A0159455AD8286A800788
:101E7000F6D50CE0FFF76EFD824605E0FFF76AFD40
:101E8000A0EB0A0159454CD8286A8007F6D41FB147
:101E9000E86920F08050E861E06988B36968C1F3BF
:101EA0008101022944D00228C6F8608004D0FFF7DF
:101EB00051FD044638E034E0FFF74CFD074604E0EE
:101EC000FFF748FDC01B02282BD828688001F7D4F3
:101ED000206AB0F5803F05D16868A16820F4003021
:101EE00008436860D4E908010843696821F4741163
:101EF00008436860C6F86090FFF72CFD044606E0D2
:101F000025E000BFFFF726FD001B022809D828683E
:101F10008001F7D51BE000BFFFF71CFD001B022866
:101F200002D90320BDE8F88F28688001F4D40EE0C0
:101F30000128F7D06868226A00F48031914204D108
:101F4000616A00F47010884201D00120EAE70020A5
:101F5000E8E70000001002400000424280044242D4
:101F6000140000200070004010B5401EB0F1807FCA
:101F700001D3012010BD4FF0E02460610F216017F4
:101F800001F071FB0020A06107202061002010BD3E
:101F90007047704770B590F83C20012A26D0012484
:101FA00080F83C40022280F83D2003685A689D6812
:101FB00022F070060A6832435A600D4B02689A425A
:101FC00008D0B2F1804F05D00A4B9A4202D00A4B9A
:101FD0009A4204D1496825F080031943916080F842
:101FE0003D40002180F83C10084670BD022070BDC5
:101FF000002C0140000400400008004010B504001F
:1020000003D094F83D0010B107E0012010BD00207E
:1020100084F83C00204600F01FF8022084F83D00C0
:10202000211D206801F092F8012084F8460084F810
:102030003E0084F83F0084F8400084F8410084F8B2
:10204000420084F8430084F8440084F8450084F892
:102050003D00002010BD000000B585B000210091BA
:10206000019102910391184A0168184891421FD1C9
:10207000816941F400618161816901F40061049129
:10208000816941F0040181618069694600F00400C2
:102090000490101500900E48FFF762FB00221146D5
:1020A0001B20FFF7C3FC1B20FFF7B2FC05B000BDEF
:1020B000B1F1804FFAD1C16941F00101C161C0693C
:1020C00000F001000490F1E7002C014000100240F4
:1020D0000008014070B5044690F83C000025012836
:1020E00017D0012684F83C60022084F83D00206867
:1020F000826822F0770222F47F42826008685028CA
:1021000038D00DDC20284FD005DC90B3102811D139
:102110004AE0022070BD302846D040280AD13BE07A
:1021200060282FD070280DD0B0F5805F03D0B0F5B7
:10213000005F12D0012584F83D60002084F83C0047
:10214000284670BDCB68D1E90121206801F047F82D
:102150002068816841F0770109E0CB68D1E901216D
:10216000206801F03CF82068816841F4804181607A
:10217000E1E719E0CA684968206801F0E5F85021F4
:10218000206806E0CA684968206801F01BF96021F0
:10219000206801F02EF8CEE7CA684968206801F08F
:1021A000D3F840212068F4E7226801461046F0E7A2
:1021B00070472DE9F041054690F83C0000260C469A
:1021C000012810D0012085F83C0072B1042A1CD0EF
:1021D000082A2CD00C2A50D00126002085F83C007B
:1021E0003046BDE8F0810220FBE7D4E90012E36845
:1021F000286801F0BBF82868816921F00C01816131
:1022000028688169A26811430FE0D4E90012E368ED
:10221000286801F0E9F82868816921F4406181614A
:1022200028688169A26841EA02218161D5E72868AE
:10223000D4E9002C277B036A016A21F480710162D2
:10224000C16923F4007321F0030141EA0C0121F07C
:10225000F00C39074FF400774CEA116107EA0222CB
:102260001A43C16102622868C16921F00C01C16191
:102270002868C169A26811432BE02868D4E90021CD
:10228000E768036AD0F820C02CF4805CC0F820C056
:10229000D0F81CC023F400532CF4407C4CEA0121FC
:1022A00021F4704C4FF6FF7101EA07314FF40057EB
:1022B00041EA0C0107EA02321A43C161026228684E
:1022C000C16921F44061C1612868C169A26841EA1D
:1022D0000221C16181E710B5040003D094F83D00EC
:1022E00010B107E0012010BD002084F83C0020461A
:1022F00000F01EF8022084F83D00211D206800F047
:1023000025FF012084F8460084F83E0084F83F0051
:1023100084F8400084F8410084F8420084F84300C7
:1023200084F8440084F8450084F83D00002010BD86
:102330007047000010B5044651B104290DD008299A
:1023400010D094F8410094F84520012811D10EE0F6
:1023500094F83E0094F84220F7E794F83F0094F890
:102360004320F2E794F8400094F84420EDE7012A76
:1023700001D0012010BD022019B3042926D008295C
:1023800029D084F8410084F845000122206800F03B
:1023900019FF13492068884208D0B0F1804F05D05A
:1023A0001049884202D01049884204D1816801F066
:1023B0000701062903D0016841F0010101600020F6
:1023C00010BD84F83E0084F84200DEE784F83F0048
:1023D00084F84300D9E784F8400084F84400D4E747
:1023E000002C014000040040000800402DE9F041AD
:1023F00004460068C66805694FF00007A90713D5B1
:10240000B10711D5F91E016101202077206880698C
:102410008007204602D0FFF7CBFE04E000F0A2F8D0
:10242000204600F034F92777680716D5700714D5D1
:1024300021686FF00400086102202077206880691D
:1024400010F4407F204602D0FFF7B2FE04E000F017
:1024500089F8204600F01BF92777280715D53007A3
:1024600013D521686FF008000861042020772068E8
:10247000C0698007204602D0FFF79AFE04E000F012
:1024800071F8204600F003F92777E80616D5F00624
:1024900014D521686FF010000861082020772068AB
:1024A000C06910F4407F204602D0FFF781FE04E0AF
:1024B00000F058F8204600F0EAF82777E80708D03F
:1024C000F00706D021686FF001000861204600F097
:1024D0002DF9280608D5300606D521686FF0800052
:1024E00008612046FFF754FD680608D5700606D53A
:1024F00021686FF040000861204600F02DF9A80621
:102500000AD5B00608D521686FF020000861204682
:10251000BDE8F041FFF73DBDBDE8F08100B585B0F5
:10252000002100910191029103910068B0F1804F68
:1025300011D10A48816941F00401816180696946CD
:1025400000F004000490032000900220019003900A
:102550000348FFF705F905B000BD00000010024078
:1025600000080140704770B5044690F83C00002612
:102570000D4601280FD0012084F83C006AB1042ADE
:102580001DD0082A2FD00C2A3FD00126002084F825
:102590003C00304670BD022070BD206800F032FE65
:1025A0002068816941F0080181612068816921F01A
:1025B00004018161206881692A69114311E0206862
:1025C00000F048FE2068816941F400618161206863
:1025D000816921F480618161206881692A6941EA09
:1025E00002218161D2E7206800F060FE2068C169A5
:1025F00041F00801C1612068C16921F00401C16195
:102600002068C1692A69114311E0206800F07AFE50
:102610002068C16941F40061C1612068C16921F489
:102620008061C1612068C1692A6941EA0221C161F2
:10263000ACE710B5040003D094F83D0010B107E0FA
:10264000012010BD002084F83C00204600F01EF858
:10265000022084F83D00211D206800F077FD012054
:1026600084F8460084F83E0084F83F0084F8400077
:1026700084F8410084F8420084F8430084F8440060
:1026800084F8450084F83D00002010BD7047704775
:1026900010B50446022249B104290ED0082913D0EE
:1026A00094F84100012816D0012010BD94F83E0096
:1026B0000128F9D184F83E200FE094F83F0001286A
:1026C000F2D184F83F2008E094F840000128EBD1D3
:1026D00084F8402001E084F841200122206800F0C5
:1026E00071FD0F492068884203D1426C42F40042D8
:1026F00042642068884208D0B0F1804F05D0094973
:10270000884202D00849884204D1816801F007015B
:10271000062903D0016841F001010160002010BDCD
:10272000002C0140000400400008004070470246B1
:10273000002041B1042909D008290AD00C2901D16F
:102740001068006C70471068406B70471068806BB1
:1027500070471068C06B7047704770477047000043
:10276000F8B5016804460868CA684B6910F00F0F95
:102770004FF0000559D003F0010602F4907737437B
:1027800065D0C10705D0D10503D5616C41F00101C9
:102790006164410705D5D90703D0616C41F002019E
:1027A0006164810705D5D90703D0616C41F004014C
:1027B0006164010707D502F02001314303D0616C49
:1027C00041F008016164616C00293AD0800604D5AB
:1027D000900602D5204600F051FE20684069616CE9
:1027E000C0F38010090700D460B3204600F01FFE3C
:1027F00020684069400621D52068143050E8001F49
:1028000021F0400140E80012002AF5D1E06BA8B1A8
:102810006D494163E06BFEF745FF002811D0E06B86
:10282000416B01B0BDE8F040084783060FD5930621
:102830000DD52046BDE8F84000F020BE2046FFF749
:102840008DFFF8BD2046FFF789FF6564F8BD266B54
:102850002023012E7CD1C6067AD5D60678D5086805
:102860004868009048694FF00206400640D5E16B89
:10287000086840680004000CE8D0A28D8242E5D9C7
:10288000E085886920282DD020680C3050E8001F92
:1028900021F4807140E80012002AF5D1206814303C
:1028A00050E8001F21F0010140E80012002AF5D194
:1028B0002068143050E8001F21F0400140E8001269
:1028C000002AF5D184F84230256320680C3050E8A6
:1028D000001F21F0100140E80012002AF5D1E06B42
:1028E000FEF7BCFE6663A08DE18D401A81B22AE03E
:1028F000A08DE18D401A81B2E08D0028A6D000297C
:10290000A4D022680C3252E8000F20F4907042E804
:102910000007002FF5D12068143050E8002F22F076
:10292000010240E80027002FF5D184F842302563EA
:1029300020680C3050E8002F22F0100240E80023FD
:10294000002BF5D166632046FFF707FFF8BDFFE7D0
:1029500005062BD5150629D594F841002128F5D177
:10296000A068B0F5805F01D12069B0B1206A411C38
:102970002162216800784860E08C401E0004000C51
:10298000E084E3D12068C16821F08001C160206843
:10299000C16841F04001C160D8E7206A0088C0F3F7
:1029A00008004860206A801C2062E5E74006CDD51B
:1029B0005006CBD5CA68204622F04002CA6084F88F
:1029C000413000F0C9F8C1E71F34000870B50400B9
:1029D00004D094F84100002510B106E0012070BD3C
:1029E00084F84050204600F023F8242084F8410069
:1029F0002068C16821F40051C160204600F0A0FDAC
:102A00002068016921F4904101612068416921F049
:102A10002A0141612068C16841F40051C1606564C8
:102A2000202084F8410084F842006563002070BDD6
:102A300030B585B00024009401940294039400689A
:102A40001B49884232D11B48816941F48041816130
:102A5000816901F480410491816941F0080181613B
:102A60008069154D00F0080004904020009002207D
:102A700001900320039069462846FEF771FE8020EE
:102A8000CDE90004694628460294FEF769FE0B482A
:102A9000416841F0E06141F00401416000221146CB
:102AA0002520FEF7C3FF2520FEF7B2FF05B030BD9D
:102AB0000038014000100240000C014000000140BD
:102AC00090F84230202B01D00220704721B11AB17A
:102AD0000023036300F090BD0120704700681B498C
:102AE000884232D11A484178022928D1C27800237D
:102AF000462A0FD00121422A0ED04C2A0ED0522A4B
:102B00000ED0532A0ED001462B2A49680CD02D2A0C
:102B100011D014E0837012E0817010E001700EE0BB
:102B20000221FBE703700AE00A314160642906DDF7
:102B30006421416003E00A39416000D543600449E3
:102B40000122C91C0348FFF7BBBF70470038014092
:102B500000000020A80000207047FEE72DE9F043A8
:102B600085B000243548009401940294039481694F
:102B700041F010018161816901F0100104918169C6
:102B800041F020018161816901F020010491816996
:102B900041F004018161816901F0040104918169BE
:102BA00041F0080181618069DFF8948000F008003D
:102BB0004FF4D3560490002231464046FEF7C5FE3E
:102BC000DFF880904FF44077002239464846FEF700
:102BD000BCFE4FF4204001258DE8310069461A48BB
:102BE000FEF7BEFD14208DE8310069464046FEF731
:102BF000B7FDCDE900650226CDE9024669464046AB
:102C0000FEF7AEFD40F201408DE8310069464846CE
:102C1000FEF7A6FDA803CDE90004694648460294E4
:102C2000FEF79EFD01AA1120009782E85100694637
:102C30004846FEF795FD05B0BDE8F0830010024060
:102C400000080140000C01400010014010B58AB09E
:102C50000024284804940594069407940894099441
:102C60000094019402942249039401604721C0E931
:102C700001144FF6FF71C0E9031444618461FFF74A
:102C8000BDF908B172B6FEE74FF48050049004A974
:102C90001848FFF71FFA08B172B6FEE71548FFF7AC
:102CA0001AFB08B172B6FEE7089408A91148099406
:102CB000FFF770F908B172B6FEE70120CDE90040D8
:102CC0000294082269460B480394FFF772FA08B190
:102CD00072B6FEE70220009001900C22694605487A
:102CE000FFF767FA002801D072B6FEE70AB010BD00
:102CF000002C01401800002010B58EB0002407946D
:102D0000089409940A940B941C2168460C94FDF7CE
:102D10006AFB22484FF0804101604721C0E901145D
:102D20006321C0E9031480218161FFF767F908B1CD
:102D300072B6FEE74FF48050079007A91748FFF7D7
:102D4000C9F908B172B6FEE71448FFF772FC08B182
:102D500072B6FEE70B940BA910480C94FFF71AF912
:102D600008B172B6FEE7602000903220CDE9010480
:102D70000022694609480494FFF7F5FB08B172B6D2
:102D8000FEE7042269460548FFF7EDFB08B172B67D
:102D9000FEE70248FFF7C2FB0EB010BD6000002046
:102DA000FEE7FEE770B500240021204600F0F9F8A8
:102DB0000025002000F07FF96D1CEDB2802DF8D3C6
:102DC000641CE4B2082CEFD370BD0000114810B5AC
:102DD000816986B041F00801816180690E4C00F084
:102DE00008000490112001904FF4407000900320DF
:102DF000039069462046FEF7B3FC012211022046EB
:102E0000FEF7A3FD012251022046FEF79EFD06B00B
:102E100010BD000000100240000C01402DE9F047F9
:102E2000164E002407464FF080084FF40079B51580
:102E300028FA04F0384201D0012200E0002249467D
:102E40003046FEF782FD012229463046FEF77DFD21
:102E5000002229463046FEF778FD641CE4B2082CB7
:102E6000E6D3012229463046FEF76FFD294630465B
:102E7000BDE8F0470022FEF768BD0000000C0140ED
:102E800070B501220B4D540221462846FEF75DFD28
:102E90000122160231462846FEF757FD0022214640
:102EA0002846FEF752FD31462846BDE87040002214
:102EB000FEF74BBD000C014070B50A4D4FF4007495
:102EC000002221462846FEF740FD01221102284635
:102ED000FEF73BFD21462846BDE870400122FEF783
:102EE00034BD0000000C014010B500204FF47A7290
:102EF0000021491C9142FCD3401C9042F8D3FFF7BB
:102F000065FFAE2000F0C6F8D52000F0C3F88020A1
:102F100000F0C0F8A82000F0BDF83F2000F0BAF89B
:102F2000D32000F0B7F8002000F0B4F8402000F003
:102F3000B1F8A12000F0AEF8C82000F0ABF8DA201C
:102F400000F0A8F8122000F0A5F8812000F0A2F807
:102F5000CF2000F09FF8D92000F09CF8F12000F07D
:102F600099F8DB2000F096F8302000F093F8A420C8
:102F700000F090F8A62000F08DF88D2000F08AF87F
:102F8000142000F087F8AF2000F084F8BDE810406E
:102F9000FFF708BF0246012000E05043491EFCD263
:102FA000704710B50C4640F0B00000F073F81020E8
:102FB00040EA141000F06EF804F00F00BDE8104075
:102FC00000F068B82DE9F0410746CE004000083E09
:102FD000801E15464FF0FF38F1B2C0B2FFF7E1FF97
:102FE0001148002400EB05152819A0F5805090F831
:102FF000000E00F060F8641CE4B2082CF4D308EB77
:103000004700F1B2C0B2FFF7CCFF00242819A0F5A9
:10301000805090F8080E00F04EF8641CE4B2082CC2
:10302000F4D3BDE8F08100009E3F00082DE9F04791
:1030300000241D461646884681460A2713E0291BB0
:103040000A20491EFFF7A6FFB6FBF0F0B0FBF7F130
:1030500007FB110208EB0400C1B248463032FFF70B
:10306000B1FF641CE4B2AC42E9D3BDE8F0872DE9BE
:10307000F04115460E460746002406E03019C1B25D
:103080003846FFF79FFF641CE4B22A5D002AF5D1A1
:10309000BDE8F08110B50446FFF7F2FE7820FFF797
:1030A000BDFE0020FFF7BAFE2046FFF7B7FEBDE8E1
:1030B0001040FFF701BF10B50446FFF7E1FE78208E
:1030C000FFF7ACFE4020FFF7A9FE2046FFF7A6FE63
:1030D000BDE81040FFF7F0BE70477047FEF740BCF8
:1030E00030B58FB028216846FDF77DF914210AA874
:1030F000FDF779F901210804CDE9001000240294BC
:1031000002250491CDE907504FF4E010099068467C
:10311000FEF79AFD08B172B6FEE70F20CDE90A0569
:103120004FF48060CDE90C4002210AA80E94FEF70E
:10313000AFFC002801D072B6FEE70FB030BD70477B
:103140000148FFF753B9000018000020F0B50268ED
:10315000194B1A4C1A4D4FF08047984205D0B8428F
:1031600003D0A04201D0A84203D122F070064A68E1
:103170003243984205D0B84203D0A04201D0A842C1
:1031800003D122F44074CA6822434C6922F08002C1
:10319000224302608A68C2620A688262984201D150
:1031A00009690163012141610169C90703D001690E
:1031B00021F001010161F0BD002C0140000400403C
:1031C0000008004010B501F01F030121046A994076
:1031D0008C430462016A9A401143016210BD10B52C
:1031E000846842EA032224F47F440A432243826033
:1031F00010BD826822F070020A4342F0070181602C
:103200007047000030B5036A026A22F001020262D0
:103210004268846924F073050C682C4323F002058E
:103220008B682B430A4DA8420BD123F00805CB68CD
:1032300022F440722B434D6923F0040315438A693D
:103240002A434260846149684163036230BD0000E3
:10325000002C014030B5026A036A23F010030362B8
:10326000436884690D6824F4E64444EA05248D68C3
:1032700022F0200242EA05120B4DA8420ED1CD6881
:1032800022F0800242EA05124D6923F4406343EACA
:1032900085038D6922F0400243EA8503436084611F
:1032A00049688163026230BD002C014030B5036A79
:1032B000026A22F4807202624268C46923F40073D5
:1032C00024F073050C682C438D6843EA05230C4DEC
:1032D000A8420ED1CD6823F4006343EA05234D696B
:1032E00022F4405242EA05128D6923F4806342EAD7
:1032F00005124260C4614968C163036230BD0000C9
:10330000002C014030B5046A026A22F48052026245
:103310004268C3690D6823F4E64343EA05238D68D8
:1033200024F4005444EA0534064DA84204D14D6902
:1033300022F4804242EA85124260C3614968016416
:10334000046230BD002C014010B5036A046A24F009
:1033500001040462846924F0F00444EA021423F0B6
:103360000A020A438461026210BD000070B5056A5A
:10337000046A24F00104046284690F4EB04208D04C
:10338000B0F1804F05D00D4EB04202D00C4EB0428D
:1033900003D124F00304144301E044F001041A07AC
:1033A00024F0F00444EA126225F00A0301F00A0155
:1033B00019438261016270BD002C0140000400408D
:1033C0000008004010B5036A046A24F01004046287
:1033D000846923F0A00324F4704444EA023243EAEF
:1033E00001118261016210BD30B5046A056A25F0E1
:1033F00010050562856925F4407545EA022222F42C
:1034000070454FF6FF7202EA033224F0A0032A430C
:10341000A02404EA011119438261016230BD10B594
:10342000406A0021C185C184FFF798F910BD016889
:103430000C3151E8002F22F4907241E80023002B58
:10344000F5D10168143151E8002F22F0010241E862
:103450000023002BF5D1016B012909D101680C3142
:1034600051E8002F22F0100241E80023002BF5D193
:10347000202180F8421000210163704708B590F8C0
:103480004210222901D0022008BD82684FF48053E7
:103490009A4201D1016921B1816A9A421BD04AB195
:1034A0000AE00268816A5268C2F308020A80816AEF
:1034B000891C08E0026972B10268526802F07F025A
:1034C0000A70816A491C8162C18D491E0904090C78
:1034D000C18503D01BE002685268F1E70168CA6841
:1034E00022F02002CA600168CA6822F48072CA60B1
:1034F00001684A6922F001024A61202180F84210E5
:1035000000214163026B012A03D0FFF7E7FA002094
:1035100008BD016301680C3151E8002F22F0100250
:1035200041E80023002BF5D101680A68D20602D5D4
:103530000A6849680091818DFFF70FF9E7E70000FD
:1035400070B5044600680169E26821F440511143F6
:1035500001612169A0680843616908432168CA685C
:1035600041F20C639A430243CA6020684169A26930
:1035700021F44071114341611E492068884202D103
:10358000FEF72CFB01E0FEF719FB00EBC00101EB9D
:103590000012606864218000B2FBF0F3B3FBF1F32A
:1035A0006FF018067343B2FBF0F5B2FBF0F605EBD3
:1035B0008305322303EB0515B5FBF1F5B6FBF1F6F8
:1035C00005F0F00505EB0615B2FBF0F6B2FBF0F0E6
:1035D000B0FBF1F06FF01802504306EB800003EBF4
:1035E0000010B0FBF1F0216800F00F002844886063
:1035F00070BD00000038014081628285C2850021D3
:103600004164222180F84210016921B10168CA6831
:1036100042F48072CA6001684A6942F001024A615C
:103620000068C16841F02001C160002070470000BF
:103630000148FFF795B80000A8000020FEE7490008
:1036400050EAC12018BF04204A0D18BF40F0010005
:1036500040F2FF72B2EB515F08BF40F00200012858
:1036600008BF052070470907090E002804DB00F198
:10367000E02080F80014704700F00F0000F1E02017
:1036800080F8141D704730380A2801D20120704795
:103690000020704700EB8000400000E0401E002842
:1036A000FCD1704790B0FEF763F9FFF71DFCFFF700
:1036B00017FDFFF753FAFFF71FFBFFF7C7FACD48D7
:1036C000CB490C2201604FF416514160002181600A
:1036D000C160C0E904128161C161FFF777F908B1E7
:1036E00072B6FEE7FDF7E4FEB8B3C3A201210420E1
:1036F000FFF7BDFCC820FEF721F8BE48082190382E
:10370000FEF718FEBB480C219038FEF713FEB948AF
:1037100000214838FEF7BCFFB64804214838FEF7C0
:10372000B7FF0121B7A20846FFF7A1FCFDF77AFE1B
:1037300005460122B549AF48FFF7C2F9DFF8B4B238
:10374000B24CABF1480B4FF00A0AE41EB04E102108
:103750003046FEF7F5F868B12BE0FFE7ADA2012196
:103760000420FFF784FCFDF75DFE4FF44870FDF781
:10377000E5FFBFE71420FDF7E1FF10213046FEF71B
:10378000DFF8B0B96068002809DDDBF80020002010
:103790005063DBF800108863C820FDF7CFFFA078E6
:1037A00068B10020A07010213046FEF7C9F800284B
:1037B000F9D004213046FEF7C3F810B117E001201C
:1037C000F0E71420FDF7BAFF04213046FEF7B8F801
:1037D00068B961780322491CB1FBF2F302FB1311B3
:1037E000617004213046FEF7ABF80028F9D0A078CC
:1037F000C8B10122D1023046FEF7A7F800224FF4EB
:1038000080513046FEF7A1F8012220213046FEF714
:103810009CF8002240213046FEF797F86078A0B16E
:10382000012835D04AE000224FF400613046FEF70F
:103830008CF8012211033046FEF787F80022202180
:103840003046FEF782F80122E4E7FDF7EBFD411B6D
:10385000052902DA291A052930DB054690FBFAF022
:10386000232801DB64200EE01E2801DB50200AE043
:103870001A2801DB3C2006E0182801DB282002E0A2
:1038800016282FDB142060601420FDF757FF15E089
:10389000634E01213046FEF753F848B96068401D79
:1038A0006060642801DB642060601420FDF746FF3F
:1038B0004FF480613046FEF743F870B1002760682E
:1038C0003E4610B1142800DA14201FFA80F8607800
:1038D00094F80090022807D021E06068401F6060E3
:1038E0000028D1DC0020CEE7FDF780FE0E9000F02E
:1038F00051FA02460B464BA107A8FCF775FC4BA2F8
:1039000009210320FFF7B3FB07AA0D210320FFF7CE
:10391000AEFB48490E98884201DC4FF002094FF493
:1039200000414548FEF70CF878B16078022802D1D2
:10393000B9F1010F09D04FF400513F48FEF700F8EC
:10394000E8B36078022802D004E0464604E0B9F10A
:10395000020F44D047463E46DBF800104F63DBF8C9
:103960000000866395FBFAF1504695FBF0F70AFBE1
:10397000115632A103A86268FCF736FC03AA0521A0
:103980000120FFF774FB2FA201210220FFF76FFB3C
:1039900002233A4606211846FFF748FB2E2208214B
:1039A0000220FFF70FFB0123324609210220FFF717
:1039B0003DFBA078A8B125A20621032000E00EE07F
:1039C000FFF755FB607870B101280ED020A20121CD
:1039D0000320FFF74CFB1420FDF7B0FEB6E6474688
:1039E000BAE71DA2E8E71DA2F1E71EA2EFE700007B
:1039F00000380140A80000204453313842323020C2
:103A00004572720050574D3A00000000030000203C
:103A10000008014044533138423230204F4B0000FF
:103A2000000C0140252E3166636D00004469733A35
:103A3000000000000000C84100100140253364254B
:103A40002500000074656D3A0000000052455600E4
:103A5000424C554500000000465744004155544F24
:103A60000000000048414E440000000010B500294D
:103A70000AD00878002807D005487844FDF792F866
:103A8000002801D0002010BD0248784410BD00007D
:103A9000CA0B0000C20B000021F00042A2F16052EC
:103AA000B2F5801F01F0004328BFD2F17F6C0BD923
:103AB0005FEA001C43EAC20242EB507018BF704735
:103AC00028BF20F001007047B2F5801FBCBF184628
:103AD00070474FEA410C1CF5001F02D2084600F067
:103AE000CAB970B500F002F900000089FFF7F6BF0F
:103AF0004FF00040A0F580007047000002494FF0F1
:103B0000000000F0BFB900BF0000F87F4FEA41039A
:103B10004FEA5353A3F58063D3F11E03C8BFD3F11B
:103B2000210C0CDD4FF0004242EAC12242EA505221
:103B300032FA03FC8CEAE17CACEBE1707047102BAD
:103B4000C4BF0020704703F5787CBCF1FF3F04D070
:103B50006FF0004282EA2100704770B500F0C6F8AD
:103B60004992248000207047F2E710F0004248BFDD
:103B70004042B0FA80F310FA03F10AD0C3F11D03FA
:103B800003F580634FEA415002EB035202EBD1216F
:103B900070474FF000007047DFF848C170B51CEA6D
:103BA000111E1EBF1CEA13159EEA0C0F95EA0C0F9E
:103BB00000F06F8081EA030423EA4C134EEAD47EBE
:103BC00021EA4C1141F4801143F48013AE44A1FB6F
:103BD000024CA0FB0365AEF17F7E361955EB0C0558
:103BE000A1FB034C4CF10003A0FB021C16EB0C06DE
:103BF000654153F10003094218BF46F0010613F472
:103C0000007F0BD14FEA03314FEA0530340341EA1C
:103C1000155140EA16506FF003020AE04FEAC32143
:103C20004FEAC520F40241EA555140EA56506FF080
:103C3000020202EB2E4201EB025585EACE710AD058
:103C40005FEA440C18BF24F0004450F1000041F139
:103C5000000120EAD47040F2FE7C624500D270BDC3
:103C6000A84214BF4FF080444FF04044002E08BFDC
:103C70000024BEF1806FA8BFA1F1C041BDE8704033
:103C800080F282804FF0000001F1C04101F000415C
:103C900070479EEA0C0F0CEA131518BF95EA0C0F3B
:103CA00006D04FF0000081EA030E0EF0004170BD17
:103CB00000F01CF88900013E00F007B800F009B8D8
:103CC0004FEA430C5FEA5C5C08D081EA030100F034
:103CD0005BB84FEA410C5FEA5C5CF6D14FF0000044
:103CE000014970470000FF070000F87F0EF1020E47
:103CF0002EF0030E5EF8046B364205D4012A43EB26
:103D0000030515F5001F12D8012841EB010C1CF525
:103D1000001F0CD80ED14FEAD17C15F5001F0CEB1B
:103D20004C0C0CF1020C08BF4CEBD37C04E04FF0C0
:103D3000080C01E04FEAD37C0CEB4C0526FA05F6A3
:103D400006F00706B6F1040C06D20EEB860CBDE8B1
:103D500070404CF0010C6047DFE80CF0090B0202E8
:103D60004FF000414FF00000A1F5002170BD194651
:103D70001046012851EB010418BFD4F5001484BF8C
:103D8000002001F0004170BD0808A0F500114FEAC5
:103D90003101704743004FEAD30C4FEA3C0C4340DB
:103DA0001FBF40070CF1605113F0FE4F70471CF02D
:103DB000006F03D100200CF0004170470CF000436D
:103DC00043EA507010B540EACC0000F00EF800BF96
:103DD000000000924FEA0001FFF7D6BF4FF000410C
:103DE0004FF00000A1F5002170470EF1020E2EF0F9
:103DF000030E5EF8044B244204D44FEA4102B2F1B0
:103E00007F4F11D84FEA4003B3F17F4F0CD80ED14A
:103E10004FEAD07CB2F17F4F0CEB4C0C0CF1020C52
:103E200008BF4CEBD17C04E04FF0080C01E04FEAF6
:103E3000D17C0CEB4C0324FA03F404F00704B4F136
:103E4000040C06D20EEB840CBDE810404CF0010CC3
:103E50006047DFE80CF0070802024FF00040A0F5D1
:103E6000800010BD0846420018BFD2F1807288BFA2
:103E700000F0004010BDFF2141EAD050C00570475E
:103E8000FCF70DBC0CF00F03092B08BF082000F055
:103E900059800A2B0BD0082B18BF704708BF1CF0A5
:103EA000400F0AD04FF000004FF0000170471CF0A7
:103EB000400F18BF4FF0004070471CF0100F08D0A3
:103EC00020F0704300F07F4242EAD3014FEA437092
:103ED000704700F0604021F07F4242EA000201F0AA
:103EE0007F4040EA727070474FF0FF0C4CF4E06C7A
:103EF0001CEA11531CBF9CEA030C9445C2BFDA4272
:103F000001EB02517047002B0DD0BCF1000F0FD018
:103F1000002A01F00041A4BF41F0E04141F07F617F
:103F20004FF00000704701F000414FF00000704773
:103F300050EA01334FF09B0C18BF4CF0806C7FF4BB
:103F4000DDAD70471CF4801F11D01CF4E02F03D0AE
:103F50006FEACC31490070474FF04050EFF30082D8
:103F600022F0704242EA000282F3008870474FF06C
:103F700000007047010202030405060708090A0B46
:103F80000C0D0E0F101000000000000000000102D8
:103F900003040607080900000000010203040000F2
:103FA0000000000000000000000000000000000011
:103FB00000F8000000000000003330000000001096
:103FC0000C06100C0600000000000000000040C0BD
:103FD0007840C0784000043F04043F0404000070AF
:103FE00088FC08300000001820FF211E0000F008A7
:103FF000F000E018000000211C031E211E0000F04C
:104000000888700000001E21232419272110101693
:104010000E00000000000000000000000000000092
:1040200000E0180402000000000718204000000211
:104030000418E00000000040201807000000404085
:1040400080F0804040000202010F010202000000E7
:1040500000F0000000000101011F0101010000004B
:1040600000000000000080B07000000000000000B0
:104070000000000000000001010101010101000039
:1040800000000000000000303000000000000000D0
:10409000000080601804006018060100000000E0C5
:1040A00010080810E000000F102020100F00001072
:1040B00010F8000000000020203F202000000070C9
:1040C00008080888700000302824222130000030C1
:1040D0000888884830000018202020110E000000B9
:1040E000C02010F8000000070424243F240000F83A
:1040F0000888880808000019212020110E0000E01F
:10410000108888180000000F112020110E000038C0
:104110000808C83808000000003F000000000070D8
:10412000880808887000001C222121221C0000E061
:1041300010080810E0000000312222110F000000DA
:1041400000C0C0000000000000303000000000008F
:1041500000800000000000008060000000000000FF
:104160008040201008000001020408102000404098
:1041700040404040400004040404040404000008DB
:104180001020408000000020100804020100007090
:1041900048080808F0000000003036010000C03078
:1041A000C828E810E0000718272423140B0000009B
:1041B000C038E0000000203C23020227382008F825
:1041C000888888700000203F202020110E00C03019
:1041D000080808083800071820202010080008F8F0
:1041E00008080810E000203F202020100F0008F8E9
:1041F0008888E8081000203F20202320180008F8B5
:104200008888E8081000203F200003000000C0302C
:1042100008080838000007182020221E020008F8AD
:1042200008000008F808203F210101213F20000874
:1042300008F8080800000020203F202000000000AF
:104240000808F8080800C08080807F00000008F897
:1042500088C028180800203F20012638200008F8D0
:10426000080000000000203F20202020300008F837
:10427000F800F8F80800203F003F003F200008F851
:1042800030C00008F808203F200007183F00E01069
:1042900008080810E0000F10202020100F0008F878
:1042A00008080808F000203F210101010000E0108B
:1042B00008080810E0000F18242438504F0008F8B0
:1042C000888888887000203F2000030C3020007010
:1042D0008808080838000038202121221C0018080E
:1042E00008F8080818000000203F2000000008F827
:1042F00008000008F808001F202020201F00087870
:10430000880000C83808000007380E010000F808CF
:1043100000F80008F800033C0700073C03000818F9
:1043200068808068180820302C03032C302008385F
:10433000C800C83808000000203F20000000100816
:104340000808C8380800203826212020180000005E
:1043500000FE020202000000007F40404000000C0E
:1043600030C000000000000000010638C00000025C
:104370000202FE000000004040407F0000000000FC
:10438000040202020400000000000000000000001F
:10439000000000000000808080808080808000021B
:1043A0000204000000000000000000000000000007
:1043B0008080808000000019242222223F2008F8FB
:1043C000008080000000003F112020110E0000003E
:1043D000008080800000000E1120202011000000CD
:1043E00000808088F800000E112020103F2000007F
:1043F000808080800000001F222222221300008083
:1044000080F0888888180020203F202000000000CD
:10441000808080808000006B94949493600008F802
:10442000008080800000203F210000203F2000808D
:104430009898000000000020203F2020000000008D
:1044400000809898000000C08080807F000008F8FD
:10445000000080808000203F24022D3020000008D2
:1044600008F8000000000020203F2020000080808D
:10447000808080808000203F20003F20003F80809F
:10448000008080800000203F210000203F200000AD
:10449000808080800000001F202020201F0080805E
:1044A00000808000000080FFA12020110E0000008D
:1044B000008080808000000E112020A0FF8080807E
:1044C00080008080800020203F212000010000002B
:1044D0008080808080000033242424241900008000
:1044E00080E0808000000000001F2020000080800D
:1044F000000000808000001F202020103F208080CE
:1045000080000080808000010E300806010080805D
:104510000080008080800F300C030C300F00008082
:104520008000808080000020312E0E3120008080AD
:1045300080000080808080818E70180601000080DD
:104540008080808080000021302C222130000000FB
:104550000000807C020200000000003F404000009C
:104560000000FF00000000000000FF00000000024B
:10457000027C800000000040403F00000000000678
:10458000010102020404000000000000000000001D
:1045900002400000000000A00000000005400000F4
:1045A000000000C8000000000C4000000000409C1B
:1045B00000000000194000000020BCBE0000000008
:1045C00034400000BFC91B8E00000004B54000004D
:1045D000504BCFD06607E2CF010000006C410000D5
:1045E0003E8251AADFEEA73401000000D94200004C
:1045F000DCB5A0E23A301F97FFFFFFFFB445000093
:10460000FD25A0C8E9A3C14FFFFFFFFFFF3F00004A
:104610000000008000000000FF3F0000000000805C
:1046200000000000604600080000002018000000A4
:10463000280100087846000818000020380700000C
:10464000440100081C00000043000000F8FFFFFFC9
:104650000C0000000E0000000F0000002E00000003
:104660000000000000000000010000001000000039
:084670000000000000127A00B6
:04000005080000ED02
:00000001FF
